{
  "_format": "hh-sol-artifact-1",
  "contractName": "Token",
  "sourceName": "contracts/erc20.sol",
  "abi": [
    {
      "inputs": [
        {
          "internalType": "uint256",
          "name": "initialSupply",
          "type": "uint256"
        }
      ],
      "stateMutability": "nonpayable",
      "type": "constructor"
    },
    {
      "inputs": [
        {
          "internalType": "address",
          "name": "spender",
          "type": "address"
        },
        {
          "internalType": "uint256",
          "name": "allowance",
          "type": "uint256"
        },
        {
          "internalType": "uint256",
          "name": "needed",
          "type": "uint256"
        }
      ],
      "name": "ERC20InsufficientAllowance",
      "type": "error"
    },
    {
      "inputs": [
        {
          "internalType": "address",
          "name": "sender",
          "type": "address"
        },
        {
          "internalType": "uint256",
          "name": "balance",
          "type": "uint256"
        },
        {
          "internalType": "uint256",
          "name": "needed",
          "type": "uint256"
        }
      ],
      "name": "ERC20InsufficientBalance",
      "type": "error"
    },
    {
      "inputs": [
        {
          "internalType": "address",
          "name": "approver",
          "type": "address"
        }
      ],
      "name": "ERC20InvalidApprover",
      "type": "error"
    },
    {
      "inputs": [
        {
          "internalType": "address",
          "name": "receiver",
          "type": "address"
        }
      ],
      "name": "ERC20InvalidReceiver",
      "type": "error"
    },
    {
      "inputs": [
        {
          "internalType": "address",
          "name": "sender",
          "type": "address"
        }
      ],
      "name": "ERC20InvalidSender",
      "type": "error"
    },
    {
      "inputs": [
        {
          "internalType": "address",
          "name": "spender",
          "type": "address"
        }
      ],
      "name": "ERC20InvalidSpender",
      "type": "error"
    },
    {
      "anonymous": false,
      "inputs": [
        {
          "indexed": true,
          "internalType": "address",
          "name": "owner",
          "type": "address"
        },
        {
          "indexed": true,
          "internalType": "address",
          "name": "spender",
          "type": "address"
        },
        {
          "indexed": false,
          "internalType": "uint256",
          "name": "value",
          "type": "uint256"
        }
      ],
      "name": "Approval",
      "type": "event"
    },
    {
      "anonymous": false,
      "inputs": [
        {
          "indexed": true,
          "internalType": "address",
          "name": "from",
          "type": "address"
        },
        {
          "indexed": true,
          "internalType": "address",
          "name": "to",
          "type": "address"
        },
        {
          "indexed": false,
          "internalType": "uint256",
          "name": "value",
          "type": "uint256"
        }
      ],
      "name": "Transfer",
      "type": "event"
    },
    {
      "inputs": [
        {
          "internalType": "address",
          "name": "owner",
          "type": "address"
        },
        {
          "internalType": "address",
          "name": "spender",
          "type": "address"
        }
      ],
      "name": "allowance",
      "outputs": [
        {
          "internalType": "uint256",
          "name": "",
          "type": "uint256"
        }
      ],
      "stateMutability": "view",
      "type": "function"
    },
    {
      "inputs": [
        {
          "internalType": "address",
          "name": "spender",
          "type": "address"
        },
        {
          "internalType": "uint256",
          "name": "value",
          "type": "uint256"
        }
      ],
      "name": "approve",
      "outputs": [
        {
          "internalType": "bool",
          "name": "",
          "type": "bool"
        }
      ],
      "stateMutability": "nonpayable",
      "type": "function"
    },
    {
      "inputs": [
        {
          "internalType": "address",
          "name": "account",
          "type": "address"
        }
      ],
      "name": "balanceOf",
      "outputs": [
        {
          "internalType": "uint256",
          "name": "",
          "type": "uint256"
        }
      ],
      "stateMutability": "view",
      "type": "function"
    },
    {
      "inputs": [],
      "name": "cooldownPeriod",
      "outputs": [
        {
          "internalType": "uint256",
          "name": "",
          "type": "uint256"
        }
      ],
      "stateMutability": "view",
      "type": "function"
    },
    {
      "inputs": [],
      "name": "decimals",
      "outputs": [
        {
          "internalType": "uint8",
          "name": "",
          "type": "uint8"
        }
      ],
      "stateMutability": "view",
      "type": "function"
    },
    {
      "inputs": [],
      "name": "isMintPossible",
      "outputs": [
        {
          "internalType": "uint256",
          "name": "",
          "type": "uint256"
        }
      ],
      "stateMutability": "view",
      "type": "function"
    },
    {
      "inputs": [],
      "name": "mint",
      "outputs": [],
      "stateMutability": "nonpayable",
      "type": "function"
    },
    {
      "inputs": [],
      "name": "name",
      "outputs": [
        {
          "internalType": "string",
          "name": "",
          "type": "string"
        }
      ],
      "stateMutability": "view",
      "type": "function"
    },
    {
      "inputs": [],
      "name": "symbol",
      "outputs": [
        {
          "internalType": "string",
          "name": "",
          "type": "string"
        }
      ],
      "stateMutability": "view",
      "type": "function"
    },
    {
      "inputs": [],
      "name": "totalSupply",
      "outputs": [
        {
          "internalType": "uint256",
          "name": "",
          "type": "uint256"
        }
      ],
      "stateMutability": "view",
      "type": "function"
    },
    {
      "inputs": [
        {
          "internalType": "address",
          "name": "to",
          "type": "address"
        },
        {
          "internalType": "uint256",
          "name": "value",
          "type": "uint256"
        }
      ],
      "name": "transfer",
      "outputs": [
        {
          "internalType": "bool",
          "name": "",
          "type": "bool"
        }
      ],
      "stateMutability": "nonpayable",
      "type": "function"
    },
    {
      "inputs": [
        {
          "internalType": "address",
          "name": "from",
          "type": "address"
        },
        {
          "internalType": "address",
          "name": "to",
          "type": "address"
        },
        {
          "internalType": "uint256",
          "name": "value",
          "type": "uint256"
        }
      ],
      "name": "transferFrom",
      "outputs": [
        {
          "internalType": "bool",
          "name": "",
          "type": "bool"
        }
      ],
      "stateMutability": "nonpayable",
      "type": "function"
    }
  ],
  "bytecode": "0x6080604052610e106006553480156200001757600080fd5b50604051620019ac380380620019ac83398181016040528101906200003d9190620003e5565b6040518060400160405280600681526020017f546f6b656e3200000000000000000000000000000000000000000000000000008152506040518060400160405280600481526020017f544b4e32000000000000000000000000000000000000000000000000000000008152508160039081620000ba919062000687565b508060049081620000cc919062000687565b505050620000e13382620000e860201b60201c565b50620008a5565b600073ffffffffffffffffffffffffffffffffffffffff168273ffffffffffffffffffffffffffffffffffffffff16036200015d5760006040517fec442f05000000000000000000000000000000000000000000000000000000008152600401620001549190620007b3565b60405180910390fd5b62000171600083836200017560201b60201c565b5050565b600073ffffffffffffffffffffffffffffffffffffffff168373ffffffffffffffffffffffffffffffffffffffff1603620001cb578060026000828254620001be9190620007ff565b92505081905550620002a1565b60008060008573ffffffffffffffffffffffffffffffffffffffff1673ffffffffffffffffffffffffffffffffffffffff168152602001908152602001600020549050818110156200025a578381836040517fe450d38c00000000000000000000000000000000000000000000000000000000815260040162000251939291906200084b565b60405180910390fd5b8181036000808673ffffffffffffffffffffffffffffffffffffffff1673ffffffffffffffffffffffffffffffffffffffff16815260200190815260200160002081905550505b600073ffffffffffffffffffffffffffffffffffffffff168273ffffffffffffffffffffffffffffffffffffffff1603620002ec578060026000828254039250508190555062000339565b806000808473ffffffffffffffffffffffffffffffffffffffff1673ffffffffffffffffffffffffffffffffffffffff168152602001908152602001600020600082825401925050819055505b8173ffffffffffffffffffffffffffffffffffffffff168373ffffffffffffffffffffffffffffffffffffffff167fddf252ad1be2c89b69c2b068fc378daa952ba7f163c4a11628f55a4df523b3ef8360405162000398919062000888565b60405180910390a3505050565b600080fd5b6000819050919050565b620003bf81620003aa565b8114620003cb57600080fd5b50565b600081519050620003df81620003b4565b92915050565b600060208284031215620003fe57620003fd620003a5565b5b60006200040e84828501620003ce565b91505092915050565b600081519050919050565b7f4e487b7100000000000000000000000000000000000000000000000000000000600052604160045260246000fd5b7f4e487b7100000000000000000000000000000000000000000000000000000000600052602260045260246000fd5b600060028204905060018216806200049957607f821691505b602082108103620004af57620004ae62000451565b5b50919050565b60008190508160005260206000209050919050565b60006020601f8301049050919050565b600082821b905092915050565b600060088302620005197fffffffffffffffffffffffffffffffffffffffffffffffffffffffffffffffff82620004da565b620005258683620004da565b95508019841693508086168417925050509392505050565b6000819050919050565b600062000568620005626200055c84620003aa565b6200053d565b620003aa565b9050919050565b6000819050919050565b620005848362000547565b6200059c62000593826200056f565b848454620004e7565b825550505050565b600090565b620005b3620005a4565b620005c081848462000579565b505050565b5b81811015620005e857620005dc600082620005a9565b600181019050620005c6565b5050565b601f82111562000637576200060181620004b5565b6200060c84620004ca565b810160208510156200061c578190505b620006346200062b85620004ca565b830182620005c5565b50505b505050565b600082821c905092915050565b60006200065c600019846008026200063c565b1980831691505092915050565b600062000677838362000649565b9150826002028217905092915050565b620006928262000417565b67ffffffffffffffff811115620006ae57620006ad62000422565b5b620006ba825462000480565b620006c7828285620005ec565b600060209050601f831160018114620006ff5760008415620006ea578287015190505b620006f6858262000669565b86555062000766565b601f1984166200070f86620004b5565b60005b82811015620007395784890151825560018201915060208501945060208101905062000712565b8683101562000759578489015162000755601f89168262000649565b8355505b6001600288020188555050505b505050505050565b600073ffffffffffffffffffffffffffffffffffffffff82169050919050565b60006200079b826200076e565b9050919050565b620007ad816200078e565b82525050565b6000602082019050620007ca6000830184620007a2565b92915050565b7f4e487b7100000000000000000000000000000000000000000000000000000000600052601160045260246000fd5b60006200080c82620003aa565b91506200081983620003aa565b9250828201905080821115620008345762000833620007d0565b5b92915050565b6200084581620003aa565b82525050565b6000606082019050620008626000830186620007a2565b6200087160208301856200083a565b6200088060408301846200083a565b949350505050565b60006020820190506200089f60008301846200083a565b92915050565b6110f780620008b56000396000f3fe608060405234801561001057600080fd5b50600436106100b45760003560e01c8063313ce56711610071578063313ce5671461017d57806370a082311461019b57806395d89b41146101cb578063a9059cbb146101e9578063b4b2f23a14610219578063dd62ed3e14610237576100b4565b806304646a49146100b957806306fdde03146100d7578063095ea7b3146100f55780631249c58b1461012557806318160ddd1461012f57806323b872dd1461014d575b600080fd5b6100c1610267565b6040516100ce9190610c68565b60405180910390f35b6100df61026d565b6040516100ec9190610d13565b60405180910390f35b61010f600480360381019061010a9190610dc4565b6102ff565b60405161011c9190610e1f565b60405180910390f35b61012d610322565b005b610137610403565b6040516101449190610c68565b60405180910390f35b61016760048036038101906101629190610e3a565b61040d565b6040516101749190610e1f565b60405180910390f35b61018561043c565b6040516101929190610ea9565b60405180910390f35b6101b560048036038101906101b09190610ec4565b610445565b6040516101c29190610c68565b60405180910390f35b6101d361048d565b6040516101e09190610d13565b60405180910390f35b61020360048036038101906101fe9190610dc4565b61051f565b6040516102109190610e1f565b60405180910390f35b610221610542565b60405161022e9190610c68565b60405180910390f35b610251600480360381019061024c9190610ef1565b6105a8565b60405161025e9190610c68565b60405180910390f35b60065481565b60606003805461027c90610f60565b80601f01602080910402602001604051908101604052809291908181526020018280546102a890610f60565b80156102f55780601f106102ca576101008083540402835291602001916102f5565b820191906000526020600020905b8154815290600101906020018083116102d857829003601f168201915b5050505050905090565b60008061030a61062f565b9050610317818585610637565b600191505092915050565b600654600560003373ffffffffffffffffffffffffffffffffffffffff1673ffffffffffffffffffffffffffffffffffffffff1681526020019081526020016000205461036f9190610fc0565b4210156103b1576040517f08c379a00000000000000000000000000000000000000000000000000000000081526004016103a890611040565b60405180910390fd5b6103bd33612710610649565b42600560003373ffffffffffffffffffffffffffffffffffffffff1673ffffffffffffffffffffffffffffffffffffffff16815260200190815260200160002081905550565b6000600254905090565b60008061041861062f565b90506104258582856106cb565b61043085858561075f565b60019150509392505050565b60006012905090565b60008060008373ffffffffffffffffffffffffffffffffffffffff1673ffffffffffffffffffffffffffffffffffffffff168152602001908152602001600020549050919050565b60606004805461049c90610f60565b80601f01602080910402602001604051908101604052809291908181526020018280546104c890610f60565b80156105155780601f106104ea57610100808354040283529160200191610515565b820191906000526020600020905b8154815290600101906020018083116104f857829003601f168201915b5050505050905090565b60008061052a61062f565b905061053781858561075f565b600191505092915050565b6000600654600560003373ffffffffffffffffffffffffffffffffffffffff1673ffffffffffffffffffffffffffffffffffffffff168152602001908152602001600020546105919190610fc0565b42106105a057600190506105a5565b600090505b90565b6000600160008473ffffffffffffffffffffffffffffffffffffffff1673ffffffffffffffffffffffffffffffffffffffff16815260200190815260200160002060008373ffffffffffffffffffffffffffffffffffffffff1673ffffffffffffffffffffffffffffffffffffffff16815260200190815260200160002054905092915050565b600033905090565b6106448383836001610853565b505050565b600073ffffffffffffffffffffffffffffffffffffffff168273ffffffffffffffffffffffffffffffffffffffff16036106bb5760006040517fec442f050000000000000000000000000000000000000000000000000000000081526004016106b2919061106f565b60405180910390fd5b6106c760008383610a2a565b5050565b60006106d784846105a8565b90507fffffffffffffffffffffffffffffffffffffffffffffffffffffffffffffffff81146107595781811015610749578281836040517ffb8f41b20000000000000000000000000000000000000000000000000000000081526004016107409392919061108a565b60405180910390fd5b61075884848484036000610853565b5b50505050565b600073ffffffffffffffffffffffffffffffffffffffff168373ffffffffffffffffffffffffffffffffffffffff16036107d15760006040517f96c6fd1e0000000000000000000000000000000000000000000000000000000081526004016107c8919061106f565b60405180910390fd5b600073ffffffffffffffffffffffffffffffffffffffff168273ffffffffffffffffffffffffffffffffffffffff16036108435760006040517fec442f0500000000000000000000000000000000000000000000000000000000815260040161083a919061106f565b60405180910390fd5b61084e838383610a2a565b505050565b600073ffffffffffffffffffffffffffffffffffffffff168473ffffffffffffffffffffffffffffffffffffffff16036108c55760006040517fe602df050000000000000000000000000000000000000000000000000000000081526004016108bc919061106f565b60405180910390fd5b600073ffffffffffffffffffffffffffffffffffffffff168373ffffffffffffffffffffffffffffffffffffffff16036109375760006040517f94280d6200000000000000000000000000000000000000000000000000000000815260040161092e919061106f565b60405180910390fd5b81600160008673ffffffffffffffffffffffffffffffffffffffff1673ffffffffffffffffffffffffffffffffffffffff16815260200190815260200160002060008573ffffffffffffffffffffffffffffffffffffffff1673ffffffffffffffffffffffffffffffffffffffff168152602001908152602001600020819055508015610a24578273ffffffffffffffffffffffffffffffffffffffff168473ffffffffffffffffffffffffffffffffffffffff167f8c5be1e5ebec7d5bd14f71427d1e84f3dd0314c0f7b2291e5b200ac8c7c3b92584604051610a1b9190610c68565b60405180910390a35b50505050565b600073ffffffffffffffffffffffffffffffffffffffff168373ffffffffffffffffffffffffffffffffffffffff1603610a7c578060026000828254610a709190610fc0565b92505081905550610b4f565b60008060008573ffffffffffffffffffffffffffffffffffffffff1673ffffffffffffffffffffffffffffffffffffffff16815260200190815260200160002054905081811015610b08578381836040517fe450d38c000000000000000000000000000000000000000000000000000000008152600401610aff9392919061108a565b60405180910390fd5b8181036000808673ffffffffffffffffffffffffffffffffffffffff1673ffffffffffffffffffffffffffffffffffffffff16815260200190815260200160002081905550505b600073ffffffffffffffffffffffffffffffffffffffff168273ffffffffffffffffffffffffffffffffffffffff1603610b985780600260008282540392505081905550610be5565b806000808473ffffffffffffffffffffffffffffffffffffffff1673ffffffffffffffffffffffffffffffffffffffff168152602001908152602001600020600082825401925050819055505b8173ffffffffffffffffffffffffffffffffffffffff168373ffffffffffffffffffffffffffffffffffffffff167fddf252ad1be2c89b69c2b068fc378daa952ba7f163c4a11628f55a4df523b3ef83604051610c429190610c68565b60405180910390a3505050565b6000819050919050565b610c6281610c4f565b82525050565b6000602082019050610c7d6000830184610c59565b92915050565b600081519050919050565b600082825260208201905092915050565b60005b83811015610cbd578082015181840152602081019050610ca2565b60008484015250505050565b6000601f19601f8301169050919050565b6000610ce582610c83565b610cef8185610c8e565b9350610cff818560208601610c9f565b610d0881610cc9565b840191505092915050565b60006020820190508181036000830152610d2d8184610cda565b905092915050565b600080fd5b600073ffffffffffffffffffffffffffffffffffffffff82169050919050565b6000610d6582610d3a565b9050919050565b610d7581610d5a565b8114610d8057600080fd5b50565b600081359050610d9281610d6c565b92915050565b610da181610c4f565b8114610dac57600080fd5b50565b600081359050610dbe81610d98565b92915050565b60008060408385031215610ddb57610dda610d35565b5b6000610de985828601610d83565b9250506020610dfa85828601610daf565b9150509250929050565b60008115159050919050565b610e1981610e04565b82525050565b6000602082019050610e346000830184610e10565b92915050565b600080600060608486031215610e5357610e52610d35565b5b6000610e6186828701610d83565b9350506020610e7286828701610d83565b9250506040610e8386828701610daf565b9150509250925092565b600060ff82169050919050565b610ea381610e8d565b82525050565b6000602082019050610ebe6000830184610e9a565b92915050565b600060208284031215610eda57610ed9610d35565b5b6000610ee884828501610d83565b91505092915050565b60008060408385031215610f0857610f07610d35565b5b6000610f1685828601610d83565b9250506020610f2785828601610d83565b9150509250929050565b7f4e487b7100000000000000000000000000000000000000000000000000000000600052602260045260246000fd5b60006002820490506001821680610f7857607f821691505b602082108103610f8b57610f8a610f31565b5b50919050565b7f4e487b7100000000000000000000000000000000000000000000000000000000600052601160045260246000fd5b6000610fcb82610c4f565b9150610fd683610c4f565b9250828201905080821115610fee57610fed610f91565b5b92915050565b7f436f6f6c646f776e20706572696f64206e6f7420656c61707365640000000000600082015250565b600061102a601b83610c8e565b915061103582610ff4565b602082019050919050565b600060208201905081810360008301526110598161101d565b9050919050565b61106981610d5a565b82525050565b60006020820190506110846000830184611060565b92915050565b600060608201905061109f6000830186611060565b6110ac6020830185610c59565b6110b96040830184610c59565b94935050505056fea2646970667358221220fe390cdf0426160cbaa3ceed6f85db4841b0c1b5f6e6d3c3a96e323b0502800864736f6c63430008140033",
  "linkReferences": {},
  "deployedLinkReferences": {}
}