{
  "_format": "hh-sol-artifact-1",
  "contractName": "CPAMM",
  "sourceName": "contracts/cpamm.sol",
  "abi": [
    {
      "inputs": [
        {
          "internalType": "address",
          "name": "_token0",
          "type": "address"
        },
        {
          "internalType": "address",
          "name": "_token1",
          "type": "address"
        }
      ],
      "stateMutability": "nonpayable",
      "type": "constructor"
    },
    {
      "inputs": [
        {
          "internalType": "uint256",
          "name": "_amount0",
          "type": "uint256"
        },
        {
          "internalType": "uint256",
          "name": "_amount1",
          "type": "uint256"
        }
      ],
      "name": "addLiquidity",
      "outputs": [
        {
          "internalType": "uint256",
          "name": "shares",
          "type": "uint256"
        }
      ],
      "stateMutability": "nonpayable",
      "type": "function"
    },
    {
      "inputs": [
        {
          "internalType": "address",
          "name": "",
          "type": "address"
        }
      ],
      "name": "balanceOf",
      "outputs": [
        {
          "internalType": "uint256",
          "name": "",
          "type": "uint256"
        }
      ],
      "stateMutability": "view",
      "type": "function"
    },
    {
      "inputs": [],
      "name": "getReserve0",
      "outputs": [
        {
          "internalType": "uint256",
          "name": "",
          "type": "uint256"
        }
      ],
      "stateMutability": "view",
      "type": "function"
    },
    {
      "inputs": [],
      "name": "getReserve1",
      "outputs": [
        {
          "internalType": "uint256",
          "name": "",
          "type": "uint256"
        }
      ],
      "stateMutability": "view",
      "type": "function"
    },
    {
      "inputs": [],
      "name": "getShares",
      "outputs": [
        {
          "internalType": "uint256",
          "name": "",
          "type": "uint256"
        }
      ],
      "stateMutability": "view",
      "type": "function"
    },
    {
      "inputs": [
        {
          "internalType": "uint256",
          "name": "_shares",
          "type": "uint256"
        }
      ],
      "name": "removeLiquidity",
      "outputs": [
        {
          "internalType": "uint256",
          "name": "amount0",
          "type": "uint256"
        },
        {
          "internalType": "uint256",
          "name": "amount1",
          "type": "uint256"
        }
      ],
      "stateMutability": "nonpayable",
      "type": "function"
    },
    {
      "inputs": [],
      "name": "reserve0",
      "outputs": [
        {
          "internalType": "uint256",
          "name": "",
          "type": "uint256"
        }
      ],
      "stateMutability": "view",
      "type": "function"
    },
    {
      "inputs": [],
      "name": "reserve1",
      "outputs": [
        {
          "internalType": "uint256",
          "name": "",
          "type": "uint256"
        }
      ],
      "stateMutability": "view",
      "type": "function"
    },
    {
      "inputs": [
        {
          "internalType": "address",
          "name": "_tokenIn",
          "type": "address"
        },
        {
          "internalType": "uint256",
          "name": "_amountIn",
          "type": "uint256"
        }
      ],
      "name": "swap",
      "outputs": [
        {
          "internalType": "uint256",
          "name": "amountOut",
          "type": "uint256"
        }
      ],
      "stateMutability": "nonpayable",
      "type": "function"
    },
    {
      "inputs": [],
      "name": "token0",
      "outputs": [
        {
          "internalType": "contract IERC20",
          "name": "",
          "type": "address"
        }
      ],
      "stateMutability": "view",
      "type": "function"
    },
    {
      "inputs": [],
      "name": "token1",
      "outputs": [
        {
          "internalType": "contract IERC20",
          "name": "",
          "type": "address"
        }
      ],
      "stateMutability": "view",
      "type": "function"
    },
    {
      "inputs": [],
      "name": "totalSupply",
      "outputs": [
        {
          "internalType": "uint256",
          "name": "",
          "type": "uint256"
        }
      ],
      "stateMutability": "view",
      "type": "function"
    }
  ],
  "bytecode": "0x60c060405260008055600060015560006002553480156200001f57600080fd5b50604051620019623803806200196283398181016040528101906200004591906200011f565b8173ffffffffffffffffffffffffffffffffffffffff1660808173ffffffffffffffffffffffffffffffffffffffff16815250508073ffffffffffffffffffffffffffffffffffffffff1660a08173ffffffffffffffffffffffffffffffffffffffff1681525050505062000166565b600080fd5b600073ffffffffffffffffffffffffffffffffffffffff82169050919050565b6000620000e782620000ba565b9050919050565b620000f981620000da565b81146200010557600080fd5b50565b6000815190506200011981620000ee565b92915050565b60008060408385031215620001395762000138620000b5565b5b6000620001498582860162000108565b92505060206200015c8582860162000108565b9150509250929050565b60805160a05161175f62000203600039600081816103700152818161055a015281816106a30152818161090801528181610a0401528181610b3401528181610ba201528181610db20152610e5d01526000818161026c015281816102d2015281816104bb015281816106020152818161086e015281816109af01528181610ad801528181610b5501528181610b810152610d18015261175f6000f3fe608060405234801561001057600080fd5b50600436106100b45760003560e01c806399215eef1161007157806399215eef1461017f5780639c8f9f231461019d5780639cd441da146101ce578063d004f0f7146101fe578063d21220a71461022e578063d73fe0aa1461024c576100b4565b80630dfe1681146100b957806318160ddd146100d7578063443cb4bc146100f55780635a76f25e1461011357806370a082311461013157806390dc67e614610161575b600080fd5b6100c161026a565b6040516100ce91906110d1565b60405180910390f35b6100df61028e565b6040516100ec9190611105565b60405180910390f35b6100fd610294565b60405161010a9190611105565b60405180910390f35b61011b61029a565b6040516101289190611105565b60405180910390f35b61014b60048036038101906101469190611163565b6102a0565b6040516101589190611105565b60405180910390f35b6101696102b8565b6040516101769190611105565b60405180910390f35b6101876102c2565b6040516101949190611105565b60405180910390f35b6101b760048036038101906101b291906111bc565b6102cb565b6040516101c59291906111e9565b60405180910390f35b6101e860048036038101906101e39190611212565b6105fe565b6040516101f59190611105565b60405180910390f35b61021860048036038101906102139190611252565b6109ab565b6040516102259190611105565b60405180910390f35b610236610e5b565b60405161024391906110d1565b60405180910390f35b610254610e7f565b6040516102619190611105565b60405180910390f35b7f000000000000000000000000000000000000000000000000000000000000000081565b60025481565b60005481565b60015481565b60036020528060005260406000206000915090505481565b6000600154905090565b60008054905090565b60008060007f000000000000000000000000000000000000000000000000000000000000000073ffffffffffffffffffffffffffffffffffffffff166370a08231306040518263ffffffff1660e01b815260040161032991906112a1565b602060405180830381865afa158015610346573d6000803e3d6000fd5b505050506040513d601f19601f8201168201806040525081019061036a91906112d1565b905060007f000000000000000000000000000000000000000000000000000000000000000073ffffffffffffffffffffffffffffffffffffffff166370a08231306040518263ffffffff1660e01b81526004016103c791906112a1565b602060405180830381865afa1580156103e4573d6000803e3d6000fd5b505050506040513d601f19601f8201168201806040525081019061040891906112d1565b90506002548286610419919061132d565b610423919061139e565b93506002548186610434919061132d565b61043e919061139e565b92506000841180156104505750600083115b61048f576040517f08c379a00000000000000000000000000000000000000000000000000000000081526004016104869061142c565b60405180910390fd5b6104993386610ec6565b6104b984836104a8919061144c565b84836104b4919061144c565b610f39565b7f000000000000000000000000000000000000000000000000000000000000000073ffffffffffffffffffffffffffffffffffffffff1663a9059cbb33866040518363ffffffff1660e01b8152600401610514929190611480565b6020604051808303816000875af1158015610533573d6000803e3d6000fd5b505050506040513d601f19601f8201168201806040525081019061055791906114e1565b507f000000000000000000000000000000000000000000000000000000000000000073ffffffffffffffffffffffffffffffffffffffff1663a9059cbb33856040518363ffffffff1660e01b81526004016105b3929190611480565b6020604051808303816000875af11580156105d2573d6000803e3d6000fd5b505050506040513d601f19601f820116820180604052508101906105f691906114e1565b505050915091565b60007f000000000000000000000000000000000000000000000000000000000000000073ffffffffffffffffffffffffffffffffffffffff166323b872dd3330866040518463ffffffff1660e01b815260040161065d9392919061150e565b6020604051808303816000875af115801561067c573d6000803e3d6000fd5b505050506040513d601f19601f820116820180604052508101906106a091906114e1565b507f000000000000000000000000000000000000000000000000000000000000000073ffffffffffffffffffffffffffffffffffffffff166323b872dd3330856040518463ffffffff1660e01b81526004016106fe9392919061150e565b6020604051808303816000875af115801561071d573d6000803e3d6000fd5b505050506040513d601f19601f8201168201806040525081019061074191906114e1565b5060008054118061075457506000600154115b156107b65782600154610767919061132d565b82600054610775919061132d565b146107b5576040517f08c379a00000000000000000000000000000000000000000000000000000000081526004016107ac90611591565b60405180910390fd5b5b6000600254036107db576107d482846107cf919061132d565b610f4b565b905061081c565b610819600054600254856107ef919061132d565b6107f9919061139e565b6001546002548561080a919061132d565b610814919061139e565b610fc5565b90505b6000811161085f576040517f08c379a0000000000000000000000000000000000000000000000000000000008152600401610856906115fd565b60405180910390fd5b6108693382610fdf565b6109a57f000000000000000000000000000000000000000000000000000000000000000073ffffffffffffffffffffffffffffffffffffffff166370a08231306040518263ffffffff1660e01b81526004016108c591906112a1565b602060405180830381865afa1580156108e2573d6000803e3d6000fd5b505050506040513d601f19601f8201168201806040525081019061090691906112d1565b7f000000000000000000000000000000000000000000000000000000000000000073ffffffffffffffffffffffffffffffffffffffff166370a08231306040518263ffffffff1660e01b815260040161095f91906112a1565b602060405180830381865afa15801561097c573d6000803e3d6000fd5b505050506040513d601f19601f820116820180604052508101906109a091906112d1565b610f39565b92915050565b60007f000000000000000000000000000000000000000000000000000000000000000073ffffffffffffffffffffffffffffffffffffffff168373ffffffffffffffffffffffffffffffffffffffff161480610a5257507f000000000000000000000000000000000000000000000000000000000000000073ffffffffffffffffffffffffffffffffffffffff168373ffffffffffffffffffffffffffffffffffffffff16145b610a91576040517f08c379a0000000000000000000000000000000000000000000000000000000008152600401610a8890611669565b60405180910390fd5b60008211610ad4576040517f08c379a0000000000000000000000000000000000000000000000000000000008152600401610acb906116d5565b60405180910390fd5b60007f000000000000000000000000000000000000000000000000000000000000000073ffffffffffffffffffffffffffffffffffffffff168473ffffffffffffffffffffffffffffffffffffffff1614905060008060008084610b7f577f00000000000000000000000000000000000000000000000000000000000000007f0000000000000000000000000000000000000000000000000000000000000000600154600054610bc8565b7f00000000000000000000000000000000000000000000000000000000000000007f00000000000000000000000000000000000000000000000000000000000000006000546001545b93509350935093508373ffffffffffffffffffffffffffffffffffffffff166323b872dd33308a6040518463ffffffff1660e01b8152600401610c0d9392919061150e565b6020604051808303816000875af1158015610c2c573d6000803e3d6000fd5b505050506040513d601f19601f82011682018060405250810190610c5091906114e1565b5060006103e86103e589610c64919061132d565b610c6e919061139e565b90508083610c7c91906116f5565b8183610c88919061132d565b610c92919061139e565b96508373ffffffffffffffffffffffffffffffffffffffff1663a9059cbb33896040518363ffffffff1660e01b8152600401610ccf929190611480565b6020604051808303816000875af1158015610cee573d6000803e3d6000fd5b505050506040513d601f19601f82011682018060405250810190610d1291906114e1565b50610e4f7f000000000000000000000000000000000000000000000000000000000000000073ffffffffffffffffffffffffffffffffffffffff166370a08231306040518263ffffffff1660e01b8152600401610d6f91906112a1565b602060405180830381865afa158015610d8c573d6000803e3d6000fd5b505050506040513d601f19601f82011682018060405250810190610db091906112d1565b7f000000000000000000000000000000000000000000000000000000000000000073ffffffffffffffffffffffffffffffffffffffff166370a08231306040518263ffffffff1660e01b8152600401610e0991906112a1565b602060405180830381865afa158015610e26573d6000803e3d6000fd5b505050506040513d601f19601f82011682018060405250810190610e4a91906112d1565b610f39565b50505050505092915050565b7f000000000000000000000000000000000000000000000000000000000000000081565b6000600360003373ffffffffffffffffffffffffffffffffffffffff1673ffffffffffffffffffffffffffffffffffffffff16815260200190815260200160002054905090565b80600360008473ffffffffffffffffffffffffffffffffffffffff1673ffffffffffffffffffffffffffffffffffffffff1681526020019081526020016000206000828254610f15919061144c565b925050819055508060026000828254610f2e919061144c565b925050819055505050565b81600081905550806001819055505050565b60006003821115610fb25781905060006001600284610f6a919061139e565b610f7491906116f5565b90505b81811015610fac578091506002818285610f91919061139e565b610f9b91906116f5565b610fa5919061139e565b9050610f77565b50610fc0565b60008214610fbf57600190505b5b919050565b600081831115610fd55781610fd7565b825b905092915050565b80600360008473ffffffffffffffffffffffffffffffffffffffff1673ffffffffffffffffffffffffffffffffffffffff168152602001908152602001600020600082825461102e91906116f5565b92505081905550806002600082825461104791906116f5565b925050819055505050565b600073ffffffffffffffffffffffffffffffffffffffff82169050919050565b6000819050919050565b600061109761109261108d84611052565b611072565b611052565b9050919050565b60006110a98261107c565b9050919050565b60006110bb8261109e565b9050919050565b6110cb816110b0565b82525050565b60006020820190506110e660008301846110c2565b92915050565b6000819050919050565b6110ff816110ec565b82525050565b600060208201905061111a60008301846110f6565b92915050565b600080fd5b600061113082611052565b9050919050565b61114081611125565b811461114b57600080fd5b50565b60008135905061115d81611137565b92915050565b60006020828403121561117957611178611120565b5b60006111878482850161114e565b91505092915050565b611199816110ec565b81146111a457600080fd5b50565b6000813590506111b681611190565b92915050565b6000602082840312156111d2576111d1611120565b5b60006111e0848285016111a7565b91505092915050565b60006040820190506111fe60008301856110f6565b61120b60208301846110f6565b9392505050565b6000806040838503121561122957611228611120565b5b6000611237858286016111a7565b9250506020611248858286016111a7565b9150509250929050565b6000806040838503121561126957611268611120565b5b60006112778582860161114e565b9250506020611288858286016111a7565b9150509250929050565b61129b81611125565b82525050565b60006020820190506112b66000830184611292565b92915050565b6000815190506112cb81611190565b92915050565b6000602082840312156112e7576112e6611120565b5b60006112f5848285016112bc565b91505092915050565b7f4e487b7100000000000000000000000000000000000000000000000000000000600052601160045260246000fd5b6000611338826110ec565b9150611343836110ec565b9250828202611351816110ec565b91508282048414831517611368576113676112fe565b5b5092915050565b7f4e487b7100000000000000000000000000000000000000000000000000000000600052601260045260246000fd5b60006113a9826110ec565b91506113b4836110ec565b9250826113c4576113c361136f565b5b828204905092915050565b600082825260208201905092915050565b7f616d6f756e7430206f7220616d6f756e7431203d203000000000000000000000600082015250565b60006114166016836113cf565b9150611421826113e0565b602082019050919050565b6000602082019050818103600083015261144581611409565b9050919050565b6000611457826110ec565b9150611462836110ec565b925082820390508181111561147a576114796112fe565b5b92915050565b60006040820190506114956000830185611292565b6114a260208301846110f6565b9392505050565b60008115159050919050565b6114be816114a9565b81146114c957600080fd5b50565b6000815190506114db816114b5565b92915050565b6000602082840312156114f7576114f6611120565b5b6000611505848285016114cc565b91505092915050565b60006060820190506115236000830186611292565b6115306020830185611292565b61153d60408301846110f6565b949350505050565b7f78202f207920213d206478202f20647900000000000000000000000000000000600082015250565b600061157b6010836113cf565b915061158682611545565b602082019050919050565b600060208201905081810360008301526115aa8161156e565b9050919050565b7f736861726573203d203000000000000000000000000000000000000000000000600082015250565b60006115e7600a836113cf565b91506115f2826115b1565b602082019050919050565b60006020820190508181036000830152611616816115da565b9050919050565b7f696e76616c696420746f6b656e00000000000000000000000000000000000000600082015250565b6000611653600d836113cf565b915061165e8261161d565b602082019050919050565b6000602082019050818103600083015261168281611646565b9050919050565b7f616d6f756e7420696e203d203000000000000000000000000000000000000000600082015250565b60006116bf600d836113cf565b91506116ca82611689565b602082019050919050565b600060208201905081810360008301526116ee816116b2565b9050919050565b6000611700826110ec565b915061170b836110ec565b9250828201905080821115611723576117226112fe565b5b9291505056fea2646970667358221220855d08d3c86d71d6f525530937e03e7b581f75b36e38acea8d0ae50cdbe2a46664736f6c63430008140033",
  "linkReferences": {},
  "deployedLinkReferences": {}
}