{
  "_format": "hh-sol-artifact-1",
  "contractName": "CPAMM",
  "sourceName": "contracts/cpamm.sol",
  "abi": [
    {
      "inputs": [
        {
          "internalType": "address",
          "name": "_token0",
          "type": "address"
        },
        {
          "internalType": "address",
          "name": "_token1",
          "type": "address"
        }
      ],
      "stateMutability": "nonpayable",
      "type": "constructor"
    },
    {
      "inputs": [
        {
          "internalType": "uint256",
          "name": "_amount0",
          "type": "uint256"
        },
        {
          "internalType": "uint256",
          "name": "_amount1",
          "type": "uint256"
        }
      ],
      "name": "addLiquidity",
      "outputs": [
        {
          "internalType": "uint256",
          "name": "shares",
          "type": "uint256"
        }
      ],
      "stateMutability": "nonpayable",
      "type": "function"
    },
    {
      "inputs": [
        {
          "internalType": "address",
          "name": "",
          "type": "address"
        }
      ],
      "name": "balanceOf",
      "outputs": [
        {
          "internalType": "uint256",
          "name": "",
          "type": "uint256"
        }
      ],
      "stateMutability": "view",
      "type": "function"
    },
    {
      "inputs": [],
      "name": "getReserve0",
      "outputs": [
        {
          "internalType": "uint256",
          "name": "",
          "type": "uint256"
        }
      ],
      "stateMutability": "view",
      "type": "function"
    },
    {
      "inputs": [],
      "name": "getReserve1",
      "outputs": [
        {
          "internalType": "uint256",
          "name": "",
          "type": "uint256"
        }
      ],
      "stateMutability": "view",
      "type": "function"
    },
    {
      "inputs": [
        {
          "internalType": "uint256",
          "name": "_shares",
          "type": "uint256"
        }
      ],
      "name": "removeLiquidity",
      "outputs": [
        {
          "internalType": "uint256",
          "name": "amount0",
          "type": "uint256"
        },
        {
          "internalType": "uint256",
          "name": "amount1",
          "type": "uint256"
        }
      ],
      "stateMutability": "nonpayable",
      "type": "function"
    },
    {
      "inputs": [],
      "name": "reserve0",
      "outputs": [
        {
          "internalType": "uint256",
          "name": "",
          "type": "uint256"
        }
      ],
      "stateMutability": "view",
      "type": "function"
    },
    {
      "inputs": [],
      "name": "reserve1",
      "outputs": [
        {
          "internalType": "uint256",
          "name": "",
          "type": "uint256"
        }
      ],
      "stateMutability": "view",
      "type": "function"
    },
    {
      "inputs": [
        {
          "internalType": "address",
          "name": "_tokenIn",
          "type": "address"
        },
        {
          "internalType": "uint256",
          "name": "_amountIn",
          "type": "uint256"
        }
      ],
      "name": "swap",
      "outputs": [
        {
          "internalType": "uint256",
          "name": "amountOut",
          "type": "uint256"
        }
      ],
      "stateMutability": "nonpayable",
      "type": "function"
    },
    {
      "inputs": [],
      "name": "token0",
      "outputs": [
        {
          "internalType": "contract IERC20",
          "name": "",
          "type": "address"
        }
      ],
      "stateMutability": "view",
      "type": "function"
    },
    {
      "inputs": [],
      "name": "token1",
      "outputs": [
        {
          "internalType": "contract IERC20",
          "name": "",
          "type": "address"
        }
      ],
      "stateMutability": "view",
      "type": "function"
    },
    {
      "inputs": [],
      "name": "totalSupply",
      "outputs": [
        {
          "internalType": "uint256",
          "name": "",
          "type": "uint256"
        }
      ],
      "stateMutability": "view",
      "type": "function"
    }
  ],
  "bytecode": "0x60c060405260008055600060015560006002553480156200001f57600080fd5b50604051620018f2380380620018f283398181016040528101906200004591906200011f565b8173ffffffffffffffffffffffffffffffffffffffff1660808173ffffffffffffffffffffffffffffffffffffffff16815250508073ffffffffffffffffffffffffffffffffffffffff1660a08173ffffffffffffffffffffffffffffffffffffffff1681525050505062000166565b600080fd5b600073ffffffffffffffffffffffffffffffffffffffff82169050919050565b6000620000e782620000ba565b9050919050565b620000f981620000da565b81146200010557600080fd5b50565b6000815190506200011981620000ee565b92915050565b60008060408385031215620001395762000138620000b5565b5b6000620001498582860162000108565b92505060206200015c8582860162000108565b9150509250929050565b60805160a0516116ef6200020360003960008181610347015281816105310152818161067a015281816108df015281816109db01528181610b0b01528181610b7901528181610d890152610e34015260008181610243015281816102a901528181610492015281816105d9015281816108450152818161098601528181610aaf01528181610b2c01528181610b580152610cef01526116ef6000f3fe608060405234801561001057600080fd5b50600436106100a95760003560e01c806390dc67e61161007157806390dc67e61461015657806399215eef146101745780639c8f9f23146101925780639cd441da146101c3578063d004f0f7146101f3578063d21220a714610223576100a9565b80630dfe1681146100ae57806318160ddd146100cc578063443cb4bc146100ea5780635a76f25e1461010857806370a0823114610126575b600080fd5b6100b6610241565b6040516100c39190611061565b60405180910390f35b6100d4610265565b6040516100e19190611095565b60405180910390f35b6100f261026b565b6040516100ff9190611095565b60405180910390f35b610110610271565b60405161011d9190611095565b60405180910390f35b610140600480360381019061013b91906110f3565b610277565b60405161014d9190611095565b60405180910390f35b61015e61028f565b60405161016b9190611095565b60405180910390f35b61017c610299565b6040516101899190611095565b60405180910390f35b6101ac60048036038101906101a7919061114c565b6102a2565b6040516101ba929190611179565b60405180910390f35b6101dd60048036038101906101d891906111a2565b6105d5565b6040516101ea9190611095565b60405180910390f35b61020d600480360381019061020891906111e2565b610982565b60405161021a9190611095565b60405180910390f35b61022b610e32565b6040516102389190611061565b60405180910390f35b7f000000000000000000000000000000000000000000000000000000000000000081565b60025481565b60005481565b60015481565b60036020528060005260406000206000915090505481565b6000600154905090565b60008054905090565b60008060007f000000000000000000000000000000000000000000000000000000000000000073ffffffffffffffffffffffffffffffffffffffff166370a08231306040518263ffffffff1660e01b81526004016103009190611231565b602060405180830381865afa15801561031d573d6000803e3d6000fd5b505050506040513d601f19601f820116820180604052508101906103419190611261565b905060007f000000000000000000000000000000000000000000000000000000000000000073ffffffffffffffffffffffffffffffffffffffff166370a08231306040518263ffffffff1660e01b815260040161039e9190611231565b602060405180830381865afa1580156103bb573d6000803e3d6000fd5b505050506040513d601f19601f820116820180604052508101906103df9190611261565b905060025482866103f091906112bd565b6103fa919061132e565b9350600254818661040b91906112bd565b610415919061132e565b92506000841180156104275750600083115b610466576040517f08c379a000000000000000000000000000000000000000000000000000000000815260040161045d906113bc565b60405180910390fd5b6104703386610e56565b610490848361047f91906113dc565b848361048b91906113dc565b610ec9565b7f000000000000000000000000000000000000000000000000000000000000000073ffffffffffffffffffffffffffffffffffffffff1663a9059cbb33866040518363ffffffff1660e01b81526004016104eb929190611410565b6020604051808303816000875af115801561050a573d6000803e3d6000fd5b505050506040513d601f19601f8201168201806040525081019061052e9190611471565b507f000000000000000000000000000000000000000000000000000000000000000073ffffffffffffffffffffffffffffffffffffffff1663a9059cbb33856040518363ffffffff1660e01b815260040161058a929190611410565b6020604051808303816000875af11580156105a9573d6000803e3d6000fd5b505050506040513d601f19601f820116820180604052508101906105cd9190611471565b505050915091565b60007f000000000000000000000000000000000000000000000000000000000000000073ffffffffffffffffffffffffffffffffffffffff166323b872dd3330866040518463ffffffff1660e01b81526004016106349392919061149e565b6020604051808303816000875af1158015610653573d6000803e3d6000fd5b505050506040513d601f19601f820116820180604052508101906106779190611471565b507f000000000000000000000000000000000000000000000000000000000000000073ffffffffffffffffffffffffffffffffffffffff166323b872dd3330856040518463ffffffff1660e01b81526004016106d59392919061149e565b6020604051808303816000875af11580156106f4573d6000803e3d6000fd5b505050506040513d601f19601f820116820180604052508101906107189190611471565b5060008054118061072b57506000600154115b1561078d578260015461073e91906112bd565b8260005461074c91906112bd565b1461078c576040517f08c379a000000000000000000000000000000000000000000000000000000000815260040161078390611521565b60405180910390fd5b5b6000600254036107b2576107ab82846107a691906112bd565b610edb565b90506107f3565b6107f0600054600254856107c691906112bd565b6107d0919061132e565b600154600254856107e191906112bd565b6107eb919061132e565b610f55565b90505b60008111610836576040517f08c379a000000000000000000000000000000000000000000000000000000000815260040161082d9061158d565b60405180910390fd5b6108403382610f6f565b61097c7f000000000000000000000000000000000000000000000000000000000000000073ffffffffffffffffffffffffffffffffffffffff166370a08231306040518263ffffffff1660e01b815260040161089c9190611231565b602060405180830381865afa1580156108b9573d6000803e3d6000fd5b505050506040513d601f19601f820116820180604052508101906108dd9190611261565b7f000000000000000000000000000000000000000000000000000000000000000073ffffffffffffffffffffffffffffffffffffffff166370a08231306040518263ffffffff1660e01b81526004016109369190611231565b602060405180830381865afa158015610953573d6000803e3d6000fd5b505050506040513d601f19601f820116820180604052508101906109779190611261565b610ec9565b92915050565b60007f000000000000000000000000000000000000000000000000000000000000000073ffffffffffffffffffffffffffffffffffffffff168373ffffffffffffffffffffffffffffffffffffffff161480610a2957507f000000000000000000000000000000000000000000000000000000000000000073ffffffffffffffffffffffffffffffffffffffff168373ffffffffffffffffffffffffffffffffffffffff16145b610a68576040517f08c379a0000000000000000000000000000000000000000000000000000000008152600401610a5f906115f9565b60405180910390fd5b60008211610aab576040517f08c379a0000000000000000000000000000000000000000000000000000000008152600401610aa290611665565b60405180910390fd5b60007f000000000000000000000000000000000000000000000000000000000000000073ffffffffffffffffffffffffffffffffffffffff168473ffffffffffffffffffffffffffffffffffffffff1614905060008060008084610b56577f00000000000000000000000000000000000000000000000000000000000000007f0000000000000000000000000000000000000000000000000000000000000000600154600054610b9f565b7f00000000000000000000000000000000000000000000000000000000000000007f00000000000000000000000000000000000000000000000000000000000000006000546001545b93509350935093508373ffffffffffffffffffffffffffffffffffffffff166323b872dd33308a6040518463ffffffff1660e01b8152600401610be49392919061149e565b6020604051808303816000875af1158015610c03573d6000803e3d6000fd5b505050506040513d601f19601f82011682018060405250810190610c279190611471565b5060006103e86103e589610c3b91906112bd565b610c45919061132e565b90508083610c539190611685565b8183610c5f91906112bd565b610c69919061132e565b96508373ffffffffffffffffffffffffffffffffffffffff1663a9059cbb33896040518363ffffffff1660e01b8152600401610ca6929190611410565b6020604051808303816000875af1158015610cc5573d6000803e3d6000fd5b505050506040513d601f19601f82011682018060405250810190610ce99190611471565b50610e267f000000000000000000000000000000000000000000000000000000000000000073ffffffffffffffffffffffffffffffffffffffff166370a08231306040518263ffffffff1660e01b8152600401610d469190611231565b602060405180830381865afa158015610d63573d6000803e3d6000fd5b505050506040513d601f19601f82011682018060405250810190610d879190611261565b7f000000000000000000000000000000000000000000000000000000000000000073ffffffffffffffffffffffffffffffffffffffff166370a08231306040518263ffffffff1660e01b8152600401610de09190611231565b602060405180830381865afa158015610dfd573d6000803e3d6000fd5b505050506040513d601f19601f82011682018060405250810190610e219190611261565b610ec9565b50505050505092915050565b7f000000000000000000000000000000000000000000000000000000000000000081565b80600360008473ffffffffffffffffffffffffffffffffffffffff1673ffffffffffffffffffffffffffffffffffffffff1681526020019081526020016000206000828254610ea591906113dc565b925050819055508060026000828254610ebe91906113dc565b925050819055505050565b81600081905550806001819055505050565b60006003821115610f425781905060006001600284610efa919061132e565b610f049190611685565b90505b81811015610f3c578091506002818285610f21919061132e565b610f2b9190611685565b610f35919061132e565b9050610f07565b50610f50565b60008214610f4f57600190505b5b919050565b600081831115610f655781610f67565b825b905092915050565b80600360008473ffffffffffffffffffffffffffffffffffffffff1673ffffffffffffffffffffffffffffffffffffffff1681526020019081526020016000206000828254610fbe9190611685565b925050819055508060026000828254610fd79190611685565b925050819055505050565b600073ffffffffffffffffffffffffffffffffffffffff82169050919050565b6000819050919050565b600061102761102261101d84610fe2565b611002565b610fe2565b9050919050565b60006110398261100c565b9050919050565b600061104b8261102e565b9050919050565b61105b81611040565b82525050565b60006020820190506110766000830184611052565b92915050565b6000819050919050565b61108f8161107c565b82525050565b60006020820190506110aa6000830184611086565b92915050565b600080fd5b60006110c082610fe2565b9050919050565b6110d0816110b5565b81146110db57600080fd5b50565b6000813590506110ed816110c7565b92915050565b600060208284031215611109576111086110b0565b5b6000611117848285016110de565b91505092915050565b6111298161107c565b811461113457600080fd5b50565b60008135905061114681611120565b92915050565b600060208284031215611162576111616110b0565b5b600061117084828501611137565b91505092915050565b600060408201905061118e6000830185611086565b61119b6020830184611086565b9392505050565b600080604083850312156111b9576111b86110b0565b5b60006111c785828601611137565b92505060206111d885828601611137565b9150509250929050565b600080604083850312156111f9576111f86110b0565b5b6000611207858286016110de565b925050602061121885828601611137565b9150509250929050565b61122b816110b5565b82525050565b60006020820190506112466000830184611222565b92915050565b60008151905061125b81611120565b92915050565b600060208284031215611277576112766110b0565b5b60006112858482850161124c565b91505092915050565b7f4e487b7100000000000000000000000000000000000000000000000000000000600052601160045260246000fd5b60006112c88261107c565b91506112d38361107c565b92508282026112e18161107c565b915082820484148315176112f8576112f761128e565b5b5092915050565b7f4e487b7100000000000000000000000000000000000000000000000000000000600052601260045260246000fd5b60006113398261107c565b91506113448361107c565b925082611354576113536112ff565b5b828204905092915050565b600082825260208201905092915050565b7f616d6f756e7430206f7220616d6f756e7431203d203000000000000000000000600082015250565b60006113a660168361135f565b91506113b182611370565b602082019050919050565b600060208201905081810360008301526113d581611399565b9050919050565b60006113e78261107c565b91506113f28361107c565b925082820390508181111561140a5761140961128e565b5b92915050565b60006040820190506114256000830185611222565b6114326020830184611086565b9392505050565b60008115159050919050565b61144e81611439565b811461145957600080fd5b50565b60008151905061146b81611445565b92915050565b600060208284031215611487576114866110b0565b5b60006114958482850161145c565b91505092915050565b60006060820190506114b36000830186611222565b6114c06020830185611222565b6114cd6040830184611086565b949350505050565b7f78202f207920213d206478202f20647900000000000000000000000000000000600082015250565b600061150b60108361135f565b9150611516826114d5565b602082019050919050565b6000602082019050818103600083015261153a816114fe565b9050919050565b7f736861726573203d203000000000000000000000000000000000000000000000600082015250565b6000611577600a8361135f565b915061158282611541565b602082019050919050565b600060208201905081810360008301526115a68161156a565b9050919050565b7f696e76616c696420746f6b656e00000000000000000000000000000000000000600082015250565b60006115e3600d8361135f565b91506115ee826115ad565b602082019050919050565b60006020820190508181036000830152611612816115d6565b9050919050565b7f616d6f756e7420696e203d203000000000000000000000000000000000000000600082015250565b600061164f600d8361135f565b915061165a82611619565b602082019050919050565b6000602082019050818103600083015261167e81611642565b9050919050565b60006116908261107c565b915061169b8361107c565b92508282019050808211156116b3576116b261128e565b5b9291505056fea2646970667358221220b2b69b1155d373235da01a7af17f9ce0e5179354c017356f72d6d1a668c89ea064736f6c63430008140033",
  "linkReferences": {},
  "deployedLinkReferences": {}
}