{
  "_format": "hh-sol-artifact-1",
  "contractName": "CPAMM",
  "sourceName": "contracts/cpamm.sol",
  "abi": [
    {
      "inputs": [
        {
          "internalType": "address",
          "name": "_token0",
          "type": "address"
        },
        {
          "internalType": "address",
          "name": "_token1",
          "type": "address"
        }
      ],
      "stateMutability": "nonpayable",
      "type": "constructor"
    },
    {
      "inputs": [
        {
          "internalType": "uint256",
          "name": "val1",
          "type": "uint256"
        },
        {
          "internalType": "uint256",
          "name": "val2",
          "type": "uint256"
        }
      ],
      "name": "absolute",
      "outputs": [
        {
          "internalType": "uint256",
          "name": "abs",
          "type": "uint256"
        }
      ],
      "stateMutability": "pure",
      "type": "function"
    },
    {
      "inputs": [
        {
          "internalType": "uint256",
          "name": "_amount0",
          "type": "uint256"
        },
        {
          "internalType": "uint256",
          "name": "_amount1",
          "type": "uint256"
        }
      ],
      "name": "addLiquidity",
      "outputs": [
        {
          "internalType": "uint256",
          "name": "shares",
          "type": "uint256"
        }
      ],
      "stateMutability": "nonpayable",
      "type": "function"
    },
    {
      "inputs": [
        {
          "internalType": "address",
          "name": "",
          "type": "address"
        }
      ],
      "name": "balanceOf",
      "outputs": [
        {
          "internalType": "uint256",
          "name": "",
          "type": "uint256"
        }
      ],
      "stateMutability": "view",
      "type": "function"
    },
    {
      "inputs": [],
      "name": "getReserve0",
      "outputs": [
        {
          "internalType": "uint256",
          "name": "",
          "type": "uint256"
        }
      ],
      "stateMutability": "view",
      "type": "function"
    },
    {
      "inputs": [],
      "name": "getReserve1",
      "outputs": [
        {
          "internalType": "uint256",
          "name": "",
          "type": "uint256"
        }
      ],
      "stateMutability": "view",
      "type": "function"
    },
    {
      "inputs": [],
      "name": "getShares",
      "outputs": [
        {
          "internalType": "uint256",
          "name": "",
          "type": "uint256"
        }
      ],
      "stateMutability": "view",
      "type": "function"
    },
    {
      "inputs": [
        {
          "internalType": "uint256",
          "name": "val1",
          "type": "uint256"
        },
        {
          "internalType": "uint256",
          "name": "val2",
          "type": "uint256"
        }
      ],
      "name": "max",
      "outputs": [
        {
          "internalType": "uint256",
          "name": "mx",
          "type": "uint256"
        }
      ],
      "stateMutability": "pure",
      "type": "function"
    },
    {
      "inputs": [
        {
          "internalType": "uint256",
          "name": "_shares",
          "type": "uint256"
        }
      ],
      "name": "removeLiquidity",
      "outputs": [
        {
          "internalType": "uint256",
          "name": "amount0",
          "type": "uint256"
        },
        {
          "internalType": "uint256",
          "name": "amount1",
          "type": "uint256"
        }
      ],
      "stateMutability": "nonpayable",
      "type": "function"
    },
    {
      "inputs": [],
      "name": "reserve0",
      "outputs": [
        {
          "internalType": "uint256",
          "name": "",
          "type": "uint256"
        }
      ],
      "stateMutability": "view",
      "type": "function"
    },
    {
      "inputs": [],
      "name": "reserve1",
      "outputs": [
        {
          "internalType": "uint256",
          "name": "",
          "type": "uint256"
        }
      ],
      "stateMutability": "view",
      "type": "function"
    },
    {
      "inputs": [
        {
          "internalType": "address",
          "name": "_tokenIn",
          "type": "address"
        },
        {
          "internalType": "uint256",
          "name": "_amountIn",
          "type": "uint256"
        }
      ],
      "name": "swap",
      "outputs": [
        {
          "internalType": "uint256",
          "name": "amountOut",
          "type": "uint256"
        }
      ],
      "stateMutability": "nonpayable",
      "type": "function"
    },
    {
      "inputs": [],
      "name": "token0",
      "outputs": [
        {
          "internalType": "contract IERC20",
          "name": "",
          "type": "address"
        }
      ],
      "stateMutability": "view",
      "type": "function"
    },
    {
      "inputs": [],
      "name": "token1",
      "outputs": [
        {
          "internalType": "contract IERC20",
          "name": "",
          "type": "address"
        }
      ],
      "stateMutability": "view",
      "type": "function"
    },
    {
      "inputs": [],
      "name": "totalSupply",
      "outputs": [
        {
          "internalType": "uint256",
          "name": "",
          "type": "uint256"
        }
      ],
      "stateMutability": "view",
      "type": "function"
    }
  ],
  "bytecode": "0x60c060405260008055600060015560006002553480156200001f57600080fd5b5060405162001a5b38038062001a5b83398181016040528101906200004591906200011f565b8173ffffffffffffffffffffffffffffffffffffffff1660808173ffffffffffffffffffffffffffffffffffffffff16815250508073ffffffffffffffffffffffffffffffffffffffff1660a08173ffffffffffffffffffffffffffffffffffffffff1681525050505062000166565b600080fd5b600073ffffffffffffffffffffffffffffffffffffffff82169050919050565b6000620000e782620000ba565b9050919050565b620000f981620000da565b81146200010557600080fd5b50565b6000815190506200011981620000ee565b92915050565b60008060408385031215620001395762000138620000b5565b5b6000620001498582860162000108565b92505060206200015c8582860162000108565b9150509250929050565b60805160a05161185862000203600039600081816104210152818161060b01528181610754015281816109d001528181610acc01528181610bfc01528181610c6a01528181610e7a0152610f25015260008181610302015281816103830152818161056c015281816106b30152818161093601528181610a7701528181610ba001528181610c1d01528181610c490152610de001526118586000f3fe608060405234801561001057600080fd5b50600436106100ea5760003560e01c806399215eef1161008c578063d004f0f711610066578063d004f0f714610264578063d21220a714610294578063d2d361d9146102b2578063d73fe0aa146102e2576100ea565b806399215eef146101e55780639c8f9f23146102035780639cd441da14610234576100ea565b80635a76f25e116100c85780635a76f25e146101495780636d5433e61461016757806370a082311461019757806390dc67e6146101c7576100ea565b80630dfe1681146100ef57806318160ddd1461010d578063443cb4bc1461012b575b600080fd5b6100f7610300565b60405161010491906111ca565b60405180910390f35b610115610324565b60405161012291906111fe565b60405180910390f35b61013361032a565b60405161014091906111fe565b60405180910390f35b610151610330565b60405161015e91906111fe565b60405180910390f35b610181600480360381019061017c919061124a565b610336565b60405161018e91906111fe565b60405180910390f35b6101b160048036038101906101ac91906112c8565b610351565b6040516101be91906111fe565b60405180910390f35b6101cf610369565b6040516101dc91906111fe565b60405180910390f35b6101ed610373565b6040516101fa91906111fe565b60405180910390f35b61021d600480360381019061021891906112f5565b61037c565b60405161022b929190611322565b60405180910390f35b61024e6004803603810190610249919061124a565b6106af565b60405161025b91906111fe565b60405180910390f35b61027e6004803603810190610279919061134b565b610a73565b60405161028b91906111fe565b60405180910390f35b61029c610f23565b6040516102a991906111ca565b60405180910390f35b6102cc60048036038101906102c7919061124a565b610f47565b6040516102d991906111fe565b60405180910390f35b6102ea610f78565b6040516102f791906111fe565b60405180910390f35b7f000000000000000000000000000000000000000000000000000000000000000081565b60025481565b60005481565b60015481565b60008183116103475781905061034b565b8290505b92915050565b60036020528060005260406000206000915090505481565b6000600154905090565b60008054905090565b60008060007f000000000000000000000000000000000000000000000000000000000000000073ffffffffffffffffffffffffffffffffffffffff166370a08231306040518263ffffffff1660e01b81526004016103da919061139a565b602060405180830381865afa1580156103f7573d6000803e3d6000fd5b505050506040513d601f19601f8201168201806040525081019061041b91906113ca565b905060007f000000000000000000000000000000000000000000000000000000000000000073ffffffffffffffffffffffffffffffffffffffff166370a08231306040518263ffffffff1660e01b8152600401610478919061139a565b602060405180830381865afa158015610495573d6000803e3d6000fd5b505050506040513d601f19601f820116820180604052508101906104b991906113ca565b905060025482866104ca9190611426565b6104d49190611497565b935060025481866104e59190611426565b6104ef9190611497565b92506000841180156105015750600083115b610540576040517f08c379a000000000000000000000000000000000000000000000000000000000815260040161053790611525565b60405180910390fd5b61054a3386610fbf565b61056a84836105599190611545565b84836105659190611545565b611032565b7f000000000000000000000000000000000000000000000000000000000000000073ffffffffffffffffffffffffffffffffffffffff1663a9059cbb33866040518363ffffffff1660e01b81526004016105c5929190611579565b6020604051808303816000875af11580156105e4573d6000803e3d6000fd5b505050506040513d601f19601f8201168201806040525081019061060891906115da565b507f000000000000000000000000000000000000000000000000000000000000000073ffffffffffffffffffffffffffffffffffffffff1663a9059cbb33856040518363ffffffff1660e01b8152600401610664929190611579565b6020604051808303816000875af1158015610683573d6000803e3d6000fd5b505050506040513d601f19601f820116820180604052508101906106a791906115da565b505050915091565b60007f000000000000000000000000000000000000000000000000000000000000000073ffffffffffffffffffffffffffffffffffffffff166323b872dd3330866040518463ffffffff1660e01b815260040161070e93929190611607565b6020604051808303816000875af115801561072d573d6000803e3d6000fd5b505050506040513d601f19601f8201168201806040525081019061075191906115da565b507f000000000000000000000000000000000000000000000000000000000000000073ffffffffffffffffffffffffffffffffffffffff166323b872dd3330856040518463ffffffff1660e01b81526004016107af93929190611607565b6020604051808303816000875af11580156107ce573d6000803e3d6000fd5b505050506040513d601f19601f820116820180604052508101906107f291906115da565b5060008054118061080557506000600154115b1561087e57610818600054600154610336565b61083c836000546108299190611426565b856001546108379190611426565b610f47565b111561087d576040517f08c379a00000000000000000000000000000000000000000000000000000000081526004016108749061168a565b60405180910390fd5b5b6000600254036108a35761089c82846108979190611426565b611044565b90506108e4565b6108e1600054600254856108b79190611426565b6108c19190611497565b600154600254856108d29190611426565b6108dc9190611497565b6110be565b90505b60008111610927576040517f08c379a000000000000000000000000000000000000000000000000000000000815260040161091e906116f6565b60405180910390fd5b61093133826110d8565b610a6d7f000000000000000000000000000000000000000000000000000000000000000073ffffffffffffffffffffffffffffffffffffffff166370a08231306040518263ffffffff1660e01b815260040161098d919061139a565b602060405180830381865afa1580156109aa573d6000803e3d6000fd5b505050506040513d601f19601f820116820180604052508101906109ce91906113ca565b7f000000000000000000000000000000000000000000000000000000000000000073ffffffffffffffffffffffffffffffffffffffff166370a08231306040518263ffffffff1660e01b8152600401610a27919061139a565b602060405180830381865afa158015610a44573d6000803e3d6000fd5b505050506040513d601f19601f82011682018060405250810190610a6891906113ca565b611032565b92915050565b60007f000000000000000000000000000000000000000000000000000000000000000073ffffffffffffffffffffffffffffffffffffffff168373ffffffffffffffffffffffffffffffffffffffff161480610b1a57507f000000000000000000000000000000000000000000000000000000000000000073ffffffffffffffffffffffffffffffffffffffff168373ffffffffffffffffffffffffffffffffffffffff16145b610b59576040517f08c379a0000000000000000000000000000000000000000000000000000000008152600401610b5090611762565b60405180910390fd5b60008211610b9c576040517f08c379a0000000000000000000000000000000000000000000000000000000008152600401610b93906117ce565b60405180910390fd5b60007f000000000000000000000000000000000000000000000000000000000000000073ffffffffffffffffffffffffffffffffffffffff168473ffffffffffffffffffffffffffffffffffffffff1614905060008060008084610c47577f00000000000000000000000000000000000000000000000000000000000000007f0000000000000000000000000000000000000000000000000000000000000000600154600054610c90565b7f00000000000000000000000000000000000000000000000000000000000000007f00000000000000000000000000000000000000000000000000000000000000006000546001545b93509350935093508373ffffffffffffffffffffffffffffffffffffffff166323b872dd33308a6040518463ffffffff1660e01b8152600401610cd593929190611607565b6020604051808303816000875af1158015610cf4573d6000803e3d6000fd5b505050506040513d601f19601f82011682018060405250810190610d1891906115da565b5060006103e86103e589610d2c9190611426565b610d369190611497565b90508083610d4491906117ee565b8183610d509190611426565b610d5a9190611497565b96508373ffffffffffffffffffffffffffffffffffffffff1663a9059cbb33896040518363ffffffff1660e01b8152600401610d97929190611579565b6020604051808303816000875af1158015610db6573d6000803e3d6000fd5b505050506040513d601f19601f82011682018060405250810190610dda91906115da565b50610f177f000000000000000000000000000000000000000000000000000000000000000073ffffffffffffffffffffffffffffffffffffffff166370a08231306040518263ffffffff1660e01b8152600401610e37919061139a565b602060405180830381865afa158015610e54573d6000803e3d6000fd5b505050506040513d601f19601f82011682018060405250810190610e7891906113ca565b7f000000000000000000000000000000000000000000000000000000000000000073ffffffffffffffffffffffffffffffffffffffff166370a08231306040518263ffffffff1660e01b8152600401610ed1919061139a565b602060405180830381865afa158015610eee573d6000803e3d6000fd5b505050506040513d601f19601f82011682018060405250810190610f1291906113ca565b611032565b50505050505092915050565b7f000000000000000000000000000000000000000000000000000000000000000081565b6000818311610f63578282610f5c9190611545565b9050610f72565b8183610f6f9190611545565b90505b92915050565b6000600360003373ffffffffffffffffffffffffffffffffffffffff1673ffffffffffffffffffffffffffffffffffffffff16815260200190815260200160002054905090565b80600360008473ffffffffffffffffffffffffffffffffffffffff1673ffffffffffffffffffffffffffffffffffffffff168152602001908152602001600020600082825461100e9190611545565b9250508190555080600260008282546110279190611545565b925050819055505050565b81600081905550806001819055505050565b600060038211156110ab57819050600060016002846110639190611497565b61106d91906117ee565b90505b818110156110a557809150600281828561108a9190611497565b61109491906117ee565b61109e9190611497565b9050611070565b506110b9565b600082146110b857600190505b5b919050565b6000818311156110ce57816110d0565b825b905092915050565b80600360008473ffffffffffffffffffffffffffffffffffffffff1673ffffffffffffffffffffffffffffffffffffffff168152602001908152602001600020600082825461112791906117ee565b92505081905550806002600082825461114091906117ee565b925050819055505050565b600073ffffffffffffffffffffffffffffffffffffffff82169050919050565b6000819050919050565b600061119061118b6111868461114b565b61116b565b61114b565b9050919050565b60006111a282611175565b9050919050565b60006111b482611197565b9050919050565b6111c4816111a9565b82525050565b60006020820190506111df60008301846111bb565b92915050565b6000819050919050565b6111f8816111e5565b82525050565b600060208201905061121360008301846111ef565b92915050565b600080fd5b611227816111e5565b811461123257600080fd5b50565b6000813590506112448161121e565b92915050565b6000806040838503121561126157611260611219565b5b600061126f85828601611235565b925050602061128085828601611235565b9150509250929050565b60006112958261114b565b9050919050565b6112a58161128a565b81146112b057600080fd5b50565b6000813590506112c28161129c565b92915050565b6000602082840312156112de576112dd611219565b5b60006112ec848285016112b3565b91505092915050565b60006020828403121561130b5761130a611219565b5b600061131984828501611235565b91505092915050565b600060408201905061133760008301856111ef565b61134460208301846111ef565b9392505050565b6000806040838503121561136257611361611219565b5b6000611370858286016112b3565b925050602061138185828601611235565b9150509250929050565b6113948161128a565b82525050565b60006020820190506113af600083018461138b565b92915050565b6000815190506113c48161121e565b92915050565b6000602082840312156113e0576113df611219565b5b60006113ee848285016113b5565b91505092915050565b7f4e487b7100000000000000000000000000000000000000000000000000000000600052601160045260246000fd5b6000611431826111e5565b915061143c836111e5565b925082820261144a816111e5565b91508282048414831517611461576114606113f7565b5b5092915050565b7f4e487b7100000000000000000000000000000000000000000000000000000000600052601260045260246000fd5b60006114a2826111e5565b91506114ad836111e5565b9250826114bd576114bc611468565b5b828204905092915050565b600082825260208201905092915050565b7f616d6f756e7430206f7220616d6f756e7431203d203000000000000000000000600082015250565b600061150f6016836114c8565b915061151a826114d9565b602082019050919050565b6000602082019050818103600083015261153e81611502565b9050919050565b6000611550826111e5565b915061155b836111e5565b9250828203905081811115611573576115726113f7565b5b92915050565b600060408201905061158e600083018561138b565b61159b60208301846111ef565b9392505050565b60008115159050919050565b6115b7816115a2565b81146115c257600080fd5b50565b6000815190506115d4816115ae565b92915050565b6000602082840312156115f0576115ef611219565b5b60006115fe848285016115c5565b91505092915050565b600060608201905061161c600083018661138b565b611629602083018561138b565b61163660408301846111ef565b949350505050565b7f78202f207920213d206478202f20647900000000000000000000000000000000600082015250565b60006116746010836114c8565b915061167f8261163e565b602082019050919050565b600060208201905081810360008301526116a381611667565b9050919050565b7f736861726573203d203000000000000000000000000000000000000000000000600082015250565b60006116e0600a836114c8565b91506116eb826116aa565b602082019050919050565b6000602082019050818103600083015261170f816116d3565b9050919050565b7f696e76616c696420746f6b656e00000000000000000000000000000000000000600082015250565b600061174c600d836114c8565b915061175782611716565b602082019050919050565b6000602082019050818103600083015261177b8161173f565b9050919050565b7f616d6f756e7420696e203d203000000000000000000000000000000000000000600082015250565b60006117b8600d836114c8565b91506117c382611782565b602082019050919050565b600060208201905081810360008301526117e7816117ab565b9050919050565b60006117f9826111e5565b9150611804836111e5565b925082820190508082111561181c5761181b6113f7565b5b9291505056fea2646970667358221220bfd3283bb99fb29a72e11c92d02acfc0358ace5dde6ff105d6560bdda8c45e4c64736f6c63430008140033",
  "linkReferences": {},
  "deployedLinkReferences": {}
}